{
  "contractName": "GoFuckingDoEth",
  "abi": [
    {
      "inputs": [
        {
          "internalType": "uint256",
          "name": "_comision",
          "type": "uint256"
        }
      ],
      "stateMutability": "nonpayable",
      "type": "constructor"
    },
    {
      "anonymous": false,
      "inputs": [
        {
          "indexed": false,
          "internalType": "uint256",
          "name": "_apuestaId",
          "type": "uint256"
        },
        {
          "indexed": false,
          "internalType": "bool",
          "name": "_ganada",
          "type": "bool"
        }
      ],
      "name": "ApuestaCompletada",
      "type": "event"
    },
    {
      "inputs": [
        {
          "internalType": "uint256",
          "name": "",
          "type": "uint256"
        }
      ],
      "name": "apuestas",
      "outputs": [
        {
          "internalType": "uint256",
          "name": "id",
          "type": "uint256"
        },
        {
          "internalType": "bool",
          "name": "pagado",
          "type": "bool"
        },
        {
          "internalType": "string",
          "name": "titulo",
          "type": "string"
        },
        {
          "internalType": "uint256",
          "name": "dinero",
          "type": "uint256"
        },
        {
          "internalType": "address payable",
          "name": "usuario",
          "type": "address"
        },
        {
          "internalType": "address",
          "name": "notario",
          "type": "address"
        }
      ],
      "stateMutability": "view",
      "type": "function",
      "constant": true
    },
    {
      "inputs": [],
      "name": "getApuestasIds",
      "outputs": [
        {
          "internalType": "uint256[]",
          "name": "",
          "type": "uint256[]"
        }
      ],
      "stateMutability": "view",
      "type": "function",
      "constant": true
    },
    {
      "inputs": [
        {
          "internalType": "uint256",
          "name": "_id",
          "type": "uint256"
        },
        {
          "internalType": "string",
          "name": "_titulo",
          "type": "string"
        },
        {
          "internalType": "address",
          "name": "_notario",
          "type": "address"
        }
      ],
      "name": "crearApuesta",
      "outputs": [],
      "stateMutability": "payable",
      "type": "function",
      "payable": true
    },
    {
      "inputs": [
        {
          "internalType": "uint256",
          "name": "_id",
          "type": "uint256"
        },
        {
          "internalType": "bool",
          "name": "_resultado",
          "type": "bool"
        }
      ],
      "name": "completarApuesta",
      "outputs": [],
      "stateMutability": "nonpayable",
      "type": "function"
    }
  ],
  "bytecode": "0x608060405273dd870fa1b7c4700f2bd7f44238821c26f7392148600160006101000a81548173ffffffffffffffffffffffffffffffffffffffff021916908373ffffffffffffffffffffffffffffffffffffffff16021790555034801561006557600080fd5b50604051620011af380380620011af833981810160405281019061008991906100d1565b80600081905550506100fe565b600080fd5b6000819050919050565b6100ae8161009b565b81146100b957600080fd5b50565b6000815190506100cb816100a5565b92915050565b6000602082840312156100e7576100e6610096565b5b60006100f5848285016100bc565b91505092915050565b6110a1806200010e6000396000f3fe60806040526004361061003f5760003560e01c80634c6bd026146100445780634eb09cd21461006f578063c1723250146100b1578063fc785016146100da575b600080fd5b34801561005057600080fd5b506100596100f6565b6040516100669190610884565b60405180910390f35b34801561007b57600080fd5b50610096600480360381019061009191906108e6565b61014e565b6040516100a896959493929190610a38565b60405180910390f35b3480156100bd57600080fd5b506100d860048036038101906100d39190610acc565b61025f565b005b6100f460048036038101906100ef9190610c6d565b6104d9565b005b6060600380548060200260200160405190810160405280929190818152602001828054801561014457602002820191906000526020600020905b815481526020019060010190808311610130575b5050505050905090565b60026020528060005260406000206000915090508060000154908060010160009054906101000a900460ff169080600201805461018a90610d0b565b80601f01602080910402602001604051908101604052809291908181526020018280546101b690610d0b565b80156102035780601f106101d857610100808354040283529160200191610203565b820191906000526020600020905b8154815290600101906020018083116101e657829003601f168201915b5050505050908060030154908060040160009054906101000a900473ffffffffffffffffffffffffffffffffffffffff16908060050160009054906101000a900473ffffffffffffffffffffffffffffffffffffffff16905086565b813373ffffffffffffffffffffffffffffffffffffffff166002600083815260200190815260200160002060050160009054906101000a900473ffffffffffffffffffffffffffffffffffffffff1673ffffffffffffffffffffffffffffffffffffffff1614610304576040517f08c379a00000000000000000000000000000000000000000000000000000000081526004016102fb90610daf565b60405180910390fd5b82600115156002600083815260200190815260200160002060010160009054906101000a900460ff1615151415610370576040517f08c379a000000000000000000000000000000000000000000000000000000000815260040161036790610e41565b60405180910390fd5b6000600260008681526020019081526020016000209050831561040e578060040160009054906101000a900473ffffffffffffffffffffffffffffffffffffffff1673ffffffffffffffffffffffffffffffffffffffff166108fc60005483600301546103dd9190610e90565b9081150290604051600060405180830381858888f19350505050158015610408573d6000803e3d6000fd5b5061047c565b600160009054906101000a900473ffffffffffffffffffffffffffffffffffffffff1673ffffffffffffffffffffffffffffffffffffffff166108fc82600301549081150290604051600060405180830381858888f1935050505015801561047a573d6000803e3d6000fd5b505b60018160010160006101000a81548160ff0219169083151502179055507fdfd529b59748f0f99f70c29daab3cffbdc6b0e49be7146d7531bb89cc5ff950685856040516104ca929190610ec4565b60405180910390a15050505050565b60026000546104e89190610eed565b3411610529576040517f08c379a000000000000000000000000000000000000000000000000000000000815260040161052090610fb9565b60405180910390fd5b803373ffffffffffffffffffffffffffffffffffffffff168173ffffffffffffffffffffffffffffffffffffffff161415610599576040517f08c379a00000000000000000000000000000000000000000000000000000000081526004016105909061104b565b60405180910390fd5b6040518060c001604052808581526020016000151581526020018481526020013481526020013373ffffffffffffffffffffffffffffffffffffffff1681526020018373ffffffffffffffffffffffffffffffffffffffff16815250600260008681526020019081526020016000206000820151816000015560208201518160010160006101000a81548160ff021916908315150217905550604082015181600201908051906020019061064e929190610719565b506060820151816003015560808201518160040160006101000a81548173ffffffffffffffffffffffffffffffffffffffff021916908373ffffffffffffffffffffffffffffffffffffffff16021790555060a08201518160050160006101000a81548173ffffffffffffffffffffffffffffffffffffffff021916908373ffffffffffffffffffffffffffffffffffffffff160217905550905050600384908060018154018082558091505060019003906000526020600020016000909190919091505550505050565b82805461072590610d0b565b90600052602060002090601f016020900481019282610747576000855561078e565b82601f1061076057805160ff191683800117855561078e565b8280016001018555821561078e579182015b8281111561078d578251825591602001919060010190610772565b5b50905061079b919061079f565b5090565b5b808211156107b85760008160009055506001016107a0565b5090565b600081519050919050565b600082825260208201905092915050565b6000819050602082019050919050565b6000819050919050565b6107fb816107e8565b82525050565b600061080d83836107f2565b60208301905092915050565b6000602082019050919050565b6000610831826107bc565b61083b81856107c7565b9350610846836107d8565b8060005b8381101561087757815161085e8882610801565b975061086983610819565b92505060018101905061084a565b5085935050505092915050565b6000602082019050818103600083015261089e8184610826565b905092915050565b6000604051905090565b600080fd5b600080fd5b6108c3816107e8565b81146108ce57600080fd5b50565b6000813590506108e0816108ba565b92915050565b6000602082840312156108fc576108fb6108b0565b5b600061090a848285016108d1565b91505092915050565b61091c816107e8565b82525050565b60008115159050919050565b61093781610922565b82525050565b600081519050919050565b600082825260208201905092915050565b60005b8381101561097757808201518184015260208101905061095c565b83811115610986576000848401525b50505050565b6000601f19601f8301169050919050565b60006109a88261093d565b6109b28185610948565b93506109c2818560208601610959565b6109cb8161098c565b840191505092915050565b600073ffffffffffffffffffffffffffffffffffffffff82169050919050565b6000610a01826109d6565b9050919050565b610a11816109f6565b82525050565b6000610a22826109d6565b9050919050565b610a3281610a17565b82525050565b600060c082019050610a4d6000830189610913565b610a5a602083018861092e565b8181036040830152610a6c818761099d565b9050610a7b6060830186610913565b610a886080830185610a08565b610a9560a0830184610a29565b979650505050505050565b610aa981610922565b8114610ab457600080fd5b50565b600081359050610ac681610aa0565b92915050565b60008060408385031215610ae357610ae26108b0565b5b6000610af1858286016108d1565b9250506020610b0285828601610ab7565b9150509250929050565b600080fd5b600080fd5b7f4e487b7100000000000000000000000000000000000000000000000000000000600052604160045260246000fd5b610b4e8261098c565b810181811067ffffffffffffffff82111715610b6d57610b6c610b16565b5b80604052505050565b6000610b806108a6565b9050610b8c8282610b45565b919050565b600067ffffffffffffffff821115610bac57610bab610b16565b5b610bb58261098c565b9050602081019050919050565b82818337600083830152505050565b6000610be4610bdf84610b91565b610b76565b905082815260208101848484011115610c0057610bff610b11565b5b610c0b848285610bc2565b509392505050565b600082601f830112610c2857610c27610b0c565b5b8135610c38848260208601610bd1565b91505092915050565b610c4a81610a17565b8114610c5557600080fd5b50565b600081359050610c6781610c41565b92915050565b600080600060608486031215610c8657610c856108b0565b5b6000610c94868287016108d1565b935050602084013567ffffffffffffffff811115610cb557610cb46108b5565b5b610cc186828701610c13565b9250506040610cd286828701610c58565b9150509250925092565b7f4e487b7100000000000000000000000000000000000000000000000000000000600052602260045260246000fd5b60006002820490506001821680610d2357607f821691505b60208210811415610d3757610d36610cdc565b5b50919050565b7f536f6c6f206c6120707565646520636f6d706c6574617220656c206e6f74617260008201527f696f20617369676e61646f2061206c6120617075657374610000000000000000602082015250565b6000610d99603883610948565b9150610da482610d3d565b604082019050919050565b60006020820190508181036000830152610dc881610d8c565b9050919050565b7f4e6f2070756564657320636f6d706c6574617220756e6120617075657374612060008201527f717565207961206861207369646f207061676164610000000000000000000000602082015250565b6000610e2b603583610948565b9150610e3682610dcf565b604082019050919050565b60006020820190508181036000830152610e5a81610e1e565b9050919050565b7f4e487b7100000000000000000000000000000000000000000000000000000000600052601160045260246000fd5b6000610e9b826107e8565b9150610ea6836107e8565b925082821015610eb957610eb8610e61565b5b828203905092915050565b6000604082019050610ed96000830185610913565b610ee6602083018461092e565b9392505050565b6000610ef8826107e8565b9150610f03836107e8565b9250817fffffffffffffffffffffffffffffffffffffffffffffffffffffffffffffffff0483118215151615610f3c57610f3b610e61565b5b828202905092915050565b7f5469656e65732071756520656e7669617220756e612063616e7469646164206d60008201527f61796f722061206c6120636f6d6973696f6e3a20353030300000000000000000602082015250565b6000610fa3603883610948565b9150610fae82610f47565b604082019050919050565b60006020820190508181036000830152610fd281610f96565b9050919050565b7f4e6f207075656465732073657220656c206e6f746172696f206465207475207060008201527f726f706961206170756573746100000000000000000000000000000000000000602082015250565b6000611035602d83610948565b915061104082610fd9565b604082019050919050565b6000602082019050818103600083015261106481611028565b905091905056fea26469706673582212206365256bcefe5cd7b3b34f5787c5894767ffd11fb3df6869a6af764c0208db0a64736f6c63430008090033",
  "immutableReferences": {},
  "source": "// SPDX-License-Identifier: MIT\npragma solidity >=0.7.0 <0.9.0;\n\ncontract GoFuckingDoEth {\n\n    uint comision;\n    address payable cuentaGanancias = payable(0xdD870fA1b7C4700F2BD7f44238821C26f7392148);\n\n    struct Apuesta {\n        uint id;\n        bool pagado;\n        string titulo;\n        uint dinero;\n        address payable usuario;\n        address notario;\n    }\n\n    mapping(uint => Apuesta) public apuestas;\n    uint[] idsApuestas;\n\n    event ApuestaCompletada(uint _apuestaId, bool _ganada);\n\n    constructor(uint _comision) {\n        comision = _comision;\n    }\n\n    function getApuestasIds() external view returns (uint[] memory) {\n      return idsApuestas;\n    }\n\n    function crearApuesta(uint _id, string memory _titulo, address _notario) external payable suficientesFondos usuarioDistintoDelNotario(_notario) {\n        apuestas[_id] = Apuesta(_id, false, _titulo, msg.value, payable(msg.sender), _notario);\n        idsApuestas.push(_id);\n    }\n\n    function completarApuesta(uint _id, bool _resultado) external esElNotario(_id) apuestaNoPagada(_id) {\n        Apuesta storage apuesta = apuestas[_id];\n        if (_resultado) {\n            // Pagar al usuario\n            apuesta.usuario.transfer(apuesta.dinero - comision);\n        } else {\n            cuentaGanancias.transfer(apuesta.dinero);\n        }\n        apuesta.pagado = true;\n        emit ApuestaCompletada(_id, _resultado);\n    }\n\n    modifier esElNotario(uint _id) {\n        require(apuestas[_id].notario == msg.sender, \"Solo la puede completar el notario asignado a la apuesta\");\n        _;\n    }\n\n    modifier usuarioDistintoDelNotario(address _notario) {\n        require(_notario != msg.sender, \"No puedes ser el notario de tu propia apuesta\");\n        _;\n    }\n\n    modifier suficientesFondos() {\n        require(msg.value > comision * 2, \"Tienes que enviar una cantidad mayor a la comision: 5000\");\n        _;\n    }\n\n    modifier apuestaNoPagada(uint _id) {\n        require(apuestas[_id].pagado != true, \"No puedes completar una apuesta que ya ha sido pagada\");\n        _;\n    }\n\n}",
  "sourcePath": "/Users/angelisco/Documents/PRONOIDE/CURSOS/curso-blockchain-panel/dapp-gofuckingdoeth/contracts/GoFuckingDoEth.sol",
  "compiler": {
    "name": "solc",
    "version": "0.8.9+commit.e5eed63a.Emscripten.clang"
  },
  "schemaVersion": "3.4.3",
  "updatedAt": "2021-10-25T16:48:14.721Z",
  "networkType": "ethereum",
  "devdoc": {
    "kind": "dev",
    "methods": {},
    "version": 1
  },
  "userdoc": {
    "kind": "user",
    "methods": {},
    "version": 1
  }
}